:020000040800F2
:10000000E82100209D0100083B2B00081124000876
:10001000392B0008AD0C00083D440008000000002A
:10002000000000000000000000000000C92C0008D3
:10003000210D000800000000C72C0008CB2C000890
:10004000B7010008B7010008B7010008B7010008B0
:10005000B7010008B7010008B7010008B7010008A0
:10006000B7010008B7010008B7010008B701000890
:10007000B7010008B7010008B7010008B701000880
:10008000B7010008B7010008B7010008B701000870
:10009000B7010008B7010008B7010008B701000860
:1000A000B7010008B7010008B7010008B701000850
:1000B000B7010008B7010008B7010008B701000840
:1000C000B7010008B7010008B7010008B701000830
:1000D000B7010008B7010008B7010008B701000820
:1000E000B7010008B7010008B7010008B701000810
:1000F000B7010008B7010008B7010008B701000800
:10010000B7010008B7010008B7010008B7010008EF
:10011000B7010008B7010008B7010008B7010008DF
:10012000B7010008B7010008B7010008B7010008CF
:10013000B7010008B7010008B7010008B7010008BF
:10014000B7010008B7010008B70100083D2B0008FF
:10015000B7010008B7010008B7010008B70100089F
:10016000B7010008B7010008B7010008B70100088F
:10017000B7010008B7010008B7010008000000003F
:10018000B7010008B7010008DFF80CD000F098FBB9
:1001900000480047DD590008E82100200648804754
:1001A00006480047FEE7FEE7FEE7FEE7FEE7FEE75C
:1001B000FEE7FEE7FEE7FEE7512D00088901000893
:1001C0002DE9F05F0546002092469B46884606468C
:1001D000814640241BE0284641464746224600F01F
:1001E00038FA53465A46C01A914110D31146184660
:1001F000224600F01FFA2D1A67EB01084F462246EF
:100200000120002100F016FA17EB00094E41201ED4
:10021000A4F10104DFDC484631462A464346BDE8E6
:10022000F09F40EA01039B0703D009E008C9121FB1
:1002300008C0042AFAD203E011F8013B00F8013BA0
:10024000521EF9D27047D2B201E000F8012B491ECC
:10025000FBD270470022F6E710B513460A46044663
:100260001946FFF7F0FF204610BD421C10F8011B95
:100270000029FBD1801A70472DE9FE4F804681EAA4
:100280000300C00F0C46009021F0004123F0004510
:10029000B8EB0200A94105D24046214690461C46D3
:1002A0000B46024623F00040104347D0270DC7F30A
:1002B0000A00C3F30A510290401A019040286BDAF9
:1002C000C3F3130040F4801B0098924620B1002332
:1002D000D2EB030A63EB0B0B01985946C0F14002C5
:1002E000504600F0A7F906460D4650465946019A79
:1002F00000F0BFF910EB08006141002487EA1152B9
:1003000084EAE7731A4340D0009A62B3019A012A43
:100310004FEA075215DC001B61EB02014FF000426F
:1003200002EA0752CDE90042001C41F58011324635
:100330002B4600F0F6F903B0BDE8F08F40462146A9
:10034000F9E7001B61EB0201001C41F58013001866
:100350005B412018A2F5001747EB030140EAD57076
:10036000B6196D4111E06D084FEA360645EAC075D1
:100370004FEA0752001B61EB0201001C41F580119E
:1003800049084FEA30000019514132462B4603B06C
:10039000BDE8F04F00F0B6B90098012240000023FC
:1003A000D0EB020263EBE073009821464FEAE07461
:1003B000B8EB000061EB0401E9E783F000435BE781
:1003C00081F0004158E72DE9FE4F81EA030404F073
:1003D000004421F0004100944FF0000B23F0004353
:1003E00050EA01045ED052EA03045BD0C3F30A541E
:1003F000C1F30A552C44A4F2F3340194A0FB025437
:10040000C1F3130141F48011C3F3130343F48013C8
:1004100001FB024400FB034E840A970A44EA81541C
:1004200047EA8357A4FB076802958D0A05FB0785F9
:100430004FEA932C04FB0C542705029D4FEA065803
:1004400047EA1637B5EB08056EEB070C870E920EE0
:1004500047EA811742EA8312A7FB0201B6EB0B01C0
:1004600064EB00042B0D43EA0C335E1844EB1C5084
:10047000DA465146E7FB0201C5F313044FEA0B339A
:1004800043EA14534FEA0432019C43EA0603A4F101
:100490000C040294009CCDE900B400F042F903B0D2
:1004A000BDE8F08F00200146F9E72DE9F04D81EA23
:1004B000030404F0004B21F0004514464FF0000AFD
:1004C00023F0004150EA050220D054EA01021DD079
:1004D000C5F30A570246C5F31303C1F31300C1F372
:1004E0000A5640F4801543F48013A7EB0608101B4E
:1004F000D64608F2FD3873EB050002D308F1010877
:1005000001E092185B41B8F1000F03DA00200146C8
:10051000BDE8F08D00204FF48011064684460EE0C1
:10052000171B73EB050705D3121B63EB050306438B
:100530004CEA010C49084FEA300092185B4150EA3E
:100540000107EDD152EA030012D082EA040083EAE7
:100550000501084305D0101BAB4106D20122002340
:1005600006E000224FF0004302E06FF0010253105A
:100570001AEB06004CEB085110EB0A0041EB0B01A3
:10058000BDE8F04D00F0BEB80EB5C10F80EAE070D6
:100590000844CA07002140F233438DE80E000A46A2
:1005A0000B4600F0BEF803B000BD00F0004230F092
:1005B00000400AD0C10D01F56071C0F3160042EA97
:1005C0000151C2084007114370470020014670479F
:1005D00001F0004330B421F0004150EA010206D09E
:1005E0000A0DA2F56072C1F31301002A02DC30BCCF
:1005F00000207047440F44EAC104C100E01830BC39
:1006000000EBC25000F047B830B50B460146002061
:100610002022012409E021FA02F59D4205D303FAC4
:1006200002F5491B04FA02F52844151EA2F1010245
:10063000F1DC30BD202A04DB203A00FA02F1002070
:1006400070479140C2F1200320FA03F31943904010
:100650007047202A04DB203A21FA02F0002170477B
:1006600021FA02F3D040C2F120029140084319461A
:100670007047202A06DBCB17203A41FA02F043EA02
:10068000E07306E041FA02F3D040C2F1200291404B
:100690000843194670470029A8BF7047401C49000D
:1006A00008BF20F00100704710B4B0FA80FC00FAD7
:1006B0000CF050EA010404BF10BC704749B1CCF102
:1006C000200421FA04F411FA0CF118BF012121438E
:1006D0000843A3EB0C01CB1D4FEA00614FEA102049
:1006E00042BF002010BC704700EBC35010440029EB
:1006F000A4BF10BC7047401C490008BF20F0010097
:1007000010BC704710B5141E73F1000408DA401CC9
:1007100041F1000192185B411A4301D120F0010020
:1007200010BD2DE9F04D92469B4611B1B1FA81F210
:1007300002E0B0FA80F220329046FFF77BFF0446D9
:100740000F4640EA0A0041EA0B0153465A46084365
:1007500013D0114653EA010019D0C8F140025046A7
:10076000FFF777FF05460E46504659464246FFF7CB
:1007700061FF084305D0012004E020463946BDE86A
:10078000F08D0020054346EAE0762C4337430A9873
:100790006305E40AA0EB08000022FD0A44EA47547E
:1007A0000A3002D500200146E9E701051019694128
:1007B000DDE9084500196941BDE8F04DA2E72DE9E2
:1007C000F04D00231A461B1A8A4103DB0020014624
:1007D000BDE8F08DC1F30A52C1F3130141F4801555
:1007E0004FF0000BD10702D100186D41521E0027B7
:1007F000044640F2FF11384601EB620A3E4680464D
:10080000024600204FF48011FFF723FFC219714107
:10081000BB1846EB0100B4EB030C75EB000C04D3E2
:10082000E41A65EB000517460E46241908F101008D
:100830006D4180463428E3DDF91946EB0600091BBB
:10084000A84103D24FF0FF32134601E000221346C5
:100850001BEB070046EB0A51BDE8F04DFFF752BF16
:10086000C1F30A52C1F3130140F2FF3341F4801186
:100870009A4202DA00200146704740F233439A421E
:10088000A2F2334202DC5242FFF7E3BEFFF7D2BED0
:1008900030B5041E71F1000404DB4FF00044404207
:1008A00064EB0101141E73F1000405DB1C464FF0DC
:1008B0000043524263EB0403994208BF904230BDAB
:1008C000064C074D06E0E06840F0010394E807009D
:1008D00098471034AC42F6D3FFF75AFCA8680008DA
:1008E000C868000870B58C1810F8015B15F0070394
:1008F00001D110F8013B2A1106D110F8012B03E0B9
:1009000010F8016B01F8016B5B1EF9D12B0705D4C0
:100910000023521E0DD401F8013BFAE710F8013B09
:10092000CB1A921C03E013F8015B01F8015B521E25
:10093000F9D5A142D8D3002070BD000010B52DED2F
:10094000048B84B00446002001905DA00122006861
:1009500002905CA001A9006803900A2000F07EF9D3
:100960000A2000F0DFF9012202A90A2000F076F93E
:100970000A2000F0D7F903226946102000F046F95A
:100980009DF800008038FFF7FFFD9FED4F8B53EC83
:10099000182BFFF718FD9FED4E9B53EC192BFFF71B
:1009A0006BFCFFF715FE20609DF801008038FFF713
:1009B000EBFD53EC182BFFF706FD53EC192BFFF75B
:1009C0005BFCFFF705FE60609DF802008038FFF7D2
:1009D000DBFD53EC182BFFF7F6FC53EC192BFFF75C
:1009E0004BFCFFF7F5FDA060012201A90A2000F0F1
:1009F0000DF90A2000F096F9012203A90A2000F05F
:100A00002DF90A2000F08EF933A005F0EDFE2068E4
:100A1000FFF7CBFD41EC100B35A153EC102B4048F8
:100A200003F00EFD3E4805F0DFFE6068FFF7BDFDF8
:100A300041EC100B3BA153EC102B394803F000FDA7
:100A4000374805F0D1FEA068FFF7AFFD41EC100B71
:100A500040A153EC102B324803F0F2FC304805F073
:100A6000C3FE484C2068FFF7A0FD41EC100B46A1E7
:100A700053EC102B2A4803F0E3FC294805F0B4FEA0
:100A80006068FFF792FD41EC100B4AA153EC102B6C
:100A9000234803F0D5FC224805F0A6FEA068FFF726
:100AA00084FD41EC100B4EA153EC102B1C4803F0BD
:100AB000C7FC1B4805F098FE04B0BDEC048B10BDCC
:100AC0000F00000016000000000000000000703F52
:100AD000000000000000F03F43616C6962726174C5
:100AE000696F6E2076616C75653A0D0A0000000032
:100AF000582D417869732073656E736974697669DE
:100B000074792061646A7573746D656E74207661A2
:100B10006C75653A20252E3466200D0A0000000011
:100B2000C0020020592D417869732073656E736986
:100B30007469766974792061646A7573746D656E21
:100B4000742076616C75653A20252E3466200D0A76
:100B5000000000005A2D417869732073656E736937
:100B60007469766974792061646A7573746D656EF1
:100B7000742076616C75653A20252E3466200D0A46
:100B80000000000060000020582D41786973207338
:100B9000656E7369746976697479206F66667365CA
:100BA000742076616C75653A20252E3466200D0A16
:100BB00000000000592D417869732073656E7369D8
:100BC000746976697479206F6666736574207661DE
:100BD0006C75653A20252E3466200D0A0000000051
:100BE0005A2D417869732073656E736974697669EB
:100BF0007479206F66667365742076616C75653AEA
:100C000020252E3466200D0A000000003EB5044663
:100C100000914FF47A70CDE901200123224618217A
:100C2000074800F041FA002808D003B022460448E3
:100C3000BDE8304003A1783003F002BC3EBD0000A7
:100C40004802002049324320726561642065727257
:100C50006F723A2025640D0A000000003EB504467C
:100C600000914FF47A70CDE901200123224618212A
:100C7000074800F015FB002808D003B022460448BE
:100C8000BDE8304003A1783003F0DABB3EBD000080
:100C900048020020493243207772697465206572EA
:100CA000726F723A2025640D0A000000FEE70020F2
:100CB000704700207047000010B500220449054825
:100CC00002F048F90449034802F03EF9002010BD43
:100CD000E413002040030020E40B002010B501467F
:100CE000034802F031F9024802F012F9002010BD69
:100CF00040030020094A10B5D2F89022D2F81421FE
:100D00000AB1012010BD0A460146044802F022F94A
:100D1000BDE81040014802F07BB90000400300200C
:100D20007047704770B5044600F0F4F80546601C43
:100D300002D004480078044400F0ECF8401BA042C4
:100D4000FAD370BDF40000202DE9F84F00224FF0D7
:100D5000010803254FF00F0E0B6808FA02F4234038
:100D6000A3426ED14E68012E05D0022E03D0112E63
:100D700001D0122E12D186684FEA420C05FA0CF708
:100D8000BE43CF6807FA0CF7374387604668A6432F
:100D90000C79C4F30014944034434460C66857008F
:100DA00005FA07FC8C6826EA0C06BC403443C46094
:100DB0004C68022C01D0122C13D1D40800EB84040F
:100DC000A346D4F8209054074FEAD46A0EFA0AF6E4
:100DD00029EA06090E6906FA0AF646EA0906CBF878
:100DE000206006680C7926EA0C0604F00304BC4077
:100DF000344304604C68E40065D5364C266846F4FC
:100E000080462660246822F0030604F4804400949F
:100E1000314C3444A446D4F808489607370F0EFAEC
:100E200007F6B4432D4EB04201D1002624E02C4EEB
:100E3000B04201D101261FE02A4EB04202D1022663
:100E40001AE040E0284EB04201D1032614E0274EBC
:100E5000B04201D104260FE0254EB04201D1052653
:100E60000AE0244EB04201D1062605E0224EB042EF
:100E700001D1072600E00826BE402643CCF80868CA
:100E80001E4E34684F689C43FF0300D51C433460FA
:100E90001A4C241D26684F689E43BF0300D51E438D
:100EA0002660164E083634684F689C43FF0200D512
:100EB0001C433460114E0C3634684F689C43BF02AB
:100EC00000D51C433460521C102AFFF445AFBDE826
:100ED000F88F00004438024000300140000002401A
:100EE0000004024000080240000C024000100240D2
:100EF0000014024000180240001C0240003C014067
:100F00000069084000D0012070470AB18161704734
:100F10000904FBE70148806870470000F4000020E6
:100F200070B5040025D094F83D00002520B984F860
:100F30003C50204600F04CFA242084F83D00206804
:100F4000016821F0010101602068016841F400415D
:100F500001602068016821F40041016001F056F849
:100F60004D4A6168914201D84C4900E04C498842A1
:100F700001D2012070BD4B492368B0FBF1F15E68DE
:100F800026F03F060E435E606368934206D94FF435
:100F9000967359434FF47A73B1FBF3F12368491CFC
:100FA0001E6A26F03F06314319626168914210D8EB
:100FB0004900401EB0FBF1F2521CC2F30B02042A9E
:100FC00001D2042022E0B0FBF1F0401CC0F30B0082
:100FD0001CE0A268F2B301EBC10303EB0116431E50
:100FE000B3FBF6F35B1C43F480431B0549D092B37B
:100FF00001EBC10202EB0111401EB0FBF1F0401CFD
:10100000C0F30B0040F4804040F400402168CA69FE
:101010004CF6FF739A431043C861D4E907100143AB
:101020002068026822F0C00211430160D4E9030184
:1010300001432068826848F2FF339A43114381607C
:10104000D4E9050108432168CA6822F0FF02104371
:10105000C86001E00EE016E02068016841F001017F
:1010600001602564202084F83D00256384F83E500B
:10107000002070BD01EB4106431EB3FBF6F35B1C81
:10108000B3E70120C2E701EB4101401EB0FBF1F0E4
:10109000401CC0F30B00B7E7A086010080841E004F
:1010A00000093D0040420F002DE9FF4F83B09A46F2
:1010B000DDE9119793460446DDF84080FFF72AFFEB
:1010C000054694F83D00202870D11923012271496A
:1010D0002046009501F0ACFA0028F5D194F83C00C8
:1010E000012863D0012084F83C0020680168C9070A
:1010F00003D1016841F0010101602068016821F419
:1011000000610160222084F83D00402084F83E0008
:1011100000262664C4F82480A4F82A90608D2085D7
:101120005D48E062CDE9007553465A462046049971
:1011300001F086F900287CD1208DD0B1012821D082
:101140000228206824D0416980690090208D0328FE
:1011500069D801282BD0514902283B464FF00002A4
:10116000009559D08846204601F062FA002860D1E7
:101170003CE02068416981690091016841F4007197
:10118000016077E02068016821F480610160F0E788
:10119000016821F4806101602068016841F4006108
:1011A0000160206841698069009063E06FE02A4631
:1011B0003946204601F0BBFA98BB20680069616A95
:1011C00008704EE02068016841F4007101602068F9
:1011D0000069616A0870606A401C6062218D491E66
:1011E0002185618D491E6185216838E0206801688C
:1011F00021F48061016020680069616A0870606A9A
:10120000401C6062208D401E2085608D401E6085E0
:101210003B46002241460095204601F009FA00B9FC
:10122000D0E706E0FFE72A463946204601F07FFA7C
:1012300018B1012007B0BDE8F08F20680069616A2D
:101240000870606A401C6062218D491E2185618D95
:10125000491E618521684A69D24352070AD4096947
:101260000170606A401C6062208D401E2085608D88
:10127000401E6085208D00287FF468AF202084F810
:101280003D0084F83E6084F83C600020D2E70220F4
:10129000D0E70000020010000000FFFF0400010082
:1012A0002DE9FF4F83B09A46DDE911979346044636
:1012B000DDF84080FFF72EFE054694F83D0020281B
:1012C0007FD11923012240492046009501F0B0F951
:1012D000002876D194F83C00012872D0012084F8CF
:1012E0003C0020680168C90703D1016841F0010191
:1012F00001602068016821F400610160212084F808
:101300003D00402084F83E0000262664C4F8248076
:10131000A4F82A90608D20852C48E062CDE9007504
:1013200053465A462046049901F008F970B930E056
:101330002A463946204601F02DFA58B1206C04287F
:1013400004D12068016841F400710160012007B0F8
:10135000BDE8F08F606A216800780861606A401C0F
:101360006062218D491E89B22185628D521E62857F
:1013700022685369DB435B070BD469B100781061C5
:10138000606A401C6062208D401E2085608D401E7A
:101390006085208D0028CBD12A463946204601F0B1
:1013A00021F90028CAD154F83D0B016841F40071BD
:1013B0000160202004F81E09E67766770020C6E762
:1013C000FFE70220C3E70000020010000000FFFF5B
:1013D00010B586B0044614216846FEF73BFF13495A
:1013E0002068884220D11248016841F00201016062
:1013F0000068694600F002000590C02000901220AD
:1014000001900120029003200390042004900948D9
:10141000FFF79AFC06481030016841F400110160A2
:10142000006800F40010059006B010BD00540040A4
:1014300030380240000402400248816802781144BA
:1014400081607047F40000200B4810B5016841F43A
:1014500000710160016841F480610160016841F43C
:1014600080710160032000F071F8002000F006F8A0
:1014700000F024F8002010BD003C024070B50D4D76
:1014800004464FF47A712878B1FBF0F00A490968F4
:10149000B1FBF0F000F0A8FF48B9102C07D20022F1
:1014A0002146501E00F032F800206C6070BD012013
:1014B00070BD0000F4000020000100200B4882B045
:1014C000016841F480410160006800F480400090B0
:1014D0000648001F016841F080510160006800F07B
:1014E00080500090072002B000F030B8443802402D
:1014F000002809DB00F01F02012191404009800013
:1015000000F1E020C0F8001170470000F0B40E4B6D
:101510001B680C46C3F30223C3F10705042D00D951
:101520000425191D072901D2002300E0DB1E012636
:1015300006FA05F1491E214099409E40761E16404C
:101540003143F0BC02F0A3BF0CED00E0064900F00F
:10155000070208684FF6FF03184040EA0220034ADA
:1015600010430860704700000CED00E00000FA0531
:1015700070470068416200207047F0B50368586A00
:1015800039B19C6A4FF4827600EB144400204D1E62
:101590000AE040EA024098620FE006EB8007DF595C
:1015A000401C04EB1744C0B2A842F6D344EA024000
:1015B0004FF4807202EB810158500020F0BDD0F84A
:1015C000040401F078BFC1EBC10200EB8202D0F845
:1015D0000404926C01F0CBBEC1EBC10200EB8202AD
:1015E000D0F80404D2F8082201F024BFD0F8040493
:1015F00001F063BF70B504460B0601F00F00C0EBAD
:10160000C00104EB81014FF001024FF0000503D54A
:1016100081F83D203C3103E081F8FD5101F5FE7178
:10162000087094F8BC03012808D084F8BC23206813
:1016300002F0BAFA84F8BC53002070BD022070BDDD
:1016400070B5044601F00F006268904201D9012094
:1016500070BD0B0601F00F01C1EBC10104EB81016C
:101660004FF001024FF0000503D581F83D203C31D9
:1016700003E081F8FD5101F5FE718D70087094F85A
:10168000BC03012808D084F8BC23206802F068FC61
:1016900084F8BC53002070BD022070BD01F00F0122
:1016A000C1EBC10100EB8100D0F8140270472DE9B5
:1016B000F04104460F0601F00F00C0EBC00104EB3F
:1016C00081014FF001064FF0000503D581F83D6020
:1016D0003C3103E081F8FD5101F5FE7108708A602C
:1016E000CB704A7802B1C880022B00D10D7194F8FA
:1016F000BC03012809D084F8BC63206802F0A4F977
:10170000284684F8BC53BDE8F0810220FBE770B5A1
:101710000C4601F00F05C5EBC50100EB8101C1F8D6
:101720001032C1F808220023C1F8143281F8FD31CB
:1017300081F8FC51036901F5FE71012B00D10A61AA
:101740002207027C006803D002F062FC002070BD1A
:1017500002F04EFBFAE770B504460D4601F00F00AB
:101760006168884201D9012070BD29064FF000064A
:101770004FF0010207D5C0EBC00104EB810181F8F5
:101780003D203C3107E0C5EBC50104EB810181F848
:10179000FD6101F5FE718A70087094F8BC030128A0
:1017A00007D084F8BC23206802F006FC280702D08A
:1017B00007E0022070BD217C04F57172206802F000
:1017C000A3FB84F8BC63002070BD70B50C4601F02B
:1017D0000F05C5EBC50100EB81010B658A64002391
:1017E0004B65012381F83D3001F83C5F0369012B13
:1017F00000D10A612207027C006803D002F008FCD5
:10180000002070BD02F0F4FAFAE700002DE9FC5F59
:1018100005680446284602F024FD00287ED1206891
:1018200002F04BFD002879D0206802F046FD8007C9
:1018300004D52068416901F002014161206802F08D
:101840003CFD010304F571704FF0010A4FF0080BE5
:10185000009075D50026206802F00EFD0746DFF8DF
:1018600008946BE0F80767D0F1B2206802F01DFD24
:101870008046C00707D005EB4611C1F808AB3146DA
:10188000204601F061F95FEA087032D52068016CEA
:1018900000EB46100191D0F8081B2269012A019A39
:1018A0000FD0F24B9A4214D1090403D54FF40041F2
:1018B000C0F8081B204600F0C9FA206901280FD0A3
:1018C00013E04A4505D9090403D54FF40041C0F897
:1018D000081B204600F0BAFA01984845EDD804E00C
:1018E00020680121009A02F00FFB05EB4611C1F8B8
:1018F00008BB5FEAC86004D505EB46111020C1F8AB
:10190000080B5FEA88600ED52069012804D12068A1
:101910000121009A02F0F8FA202100E0A1E105EB94
:101920004610C0F8081B5FEA884005D505EB461055
:101930004FF40051C0F8081B7F08761C002F91D18E
:10194000206802F0BAFC40034FF000095FD5206820
:1019500002F08BFC0746002657E0F80753D0F1B29F
:10196000206802F090FC8046C00726D006F00F02E7
:101970000AFA02F0D5F834288243C5F8342805EB7A
:101980004610C0F808A92069012807D1C6EBC60097
:1019900004EB8000D0E9112111448164F1B22046AA
:1019A000FFF711FE2069012807D136B9206D20B953
:1019B00020680121009A02F0A7FA5FEA087003D5B7
:1019C00005EB4611C1F808B95FEAC86004D505EB1C
:1019D00046111020C1F808095FEA486004D505EBFC
:1019E00046104021C0F808195FEA887004D505EB5D
:1019F00046100221C0F808195FEA086003D5314695
:101A0000204601F00FF97F08761C002FA5D1206831
:101A100002F053FC002811DAD5F8040820F0010088
:101A2000C5F8040894F8F40301282BD0204600F0F0
:101A3000F1F92068416901F000414161206802F03C
:101A40003CFC00050BD5D5F80808C00702D020469D
:101A500000F024FA2068416901F4006141612068C6
:101A600002F02BFCC00461D5D5F8040820F0010178
:101A7000C5F804181021206802F0D4FB00214FF6AD
:101A80007F321AE084F8F49300212046FFF770FDBE
:101A9000CFE700BF05EB4110C0F80829D0F80039A6
:101AA00023F40013C0F80039C0F8082BD0F8003B2D
:101AB00023F40013C0F8003B491C60688842E9D851
:101AC000D5F81C0840F00111C5F81C18206B00283F
:101AD00028460DD0D0F8840840F00B00C5F88408E3
:101AE000D5F8440840F00B012846C5F844180DE02D
:101AF000D0F8140842F22B010843C5F81408D5F8B1
:101B0000100840F00B012846C5F81018D0F800085E
:101B100020F4FE61C5F80018217C2068009A02F0CC
:101B2000F3F92068416901F480514161206802F0B5
:101B3000C4FB800415D5206801F0C6FF206802F0C0
:101B400083FBE06000F05CFA0146227B206802F033
:101B5000EFFB204600F048F92068416901F400518C
:101B60004161206802F0A9FBC00634D52068816974
:101B700021F0100181612F6A07F00F00C0EBC00057
:101B800004EB8006C7F3434006F5FE76022802D038
:101B9000062811D01AE047F6F070074216D0C7F3B6
:101BA0000A1217462846F16802F08BFBF0683844A9
:101BB000F060B069384408E008222846009902F035
:101BC00080FBB069C7F30A110844B06121688869D5
:101BD00040F010008861206802F06FFB000707D515
:101BE000204600F01BF92168486900F008004861B0
:101BF000206802F062FBC00208D50021204600F0F8
:101C000037F82168486900F480104861206802F0C4
:101C100054FB800208D50021204600F02DF82168F1
:101C2000486900F400104861206802F046FB40005B
:101C300007D52046FFF7C3FC2068416901F08041C9
:101C40004161206802F039FB40070AD520684568E9
:101C5000680702D52046FFF7C9FC20684168294380
:101C60004160BDE8FC9F00000A30544F0A31544FD8
:101C7000D0F8040401F070BCD0F8040401F06EBC8C
:101C80002DE9F0418AB0040005D094F8BD03266820
:101C9000002520B108E001200AB0BDE8F08184F8F9
:101CA000BC53204600F05EF8032084F8BD03F06BBF
:101CB000C00500D42561206802F094F804F11001F9
:101CC000282288466846FEF7ACFA94E80F0001F037
:101CD00015FF0226C8BB0021206802F000FB00208F
:101CE00001270EE0C0EBC00104EB810181F83D70DB
:101CF00001F83C0FC880CD708D60CD60401CC0B233
:101D00004D6161688142EDD8002011E0C0EBC00157
:101D100004EB810181F8FD5181F8FC0181F8FF514C
:101D2000C1F80452C1F80852401CC0B2C1F81052A8
:101D300061688142EAD8282241466846FEF771FA76
:101D400094E80F0001F088FF10B184F8BD63A2E7AA
:101D500084F8385084F8BD73206801F071FF0020CA
:101D60009AE7000010B586B0044614216846FEF7D5
:101D700071FA2068B0F1A04F2FD1194800210268F4
:101D800042F001020260006800F0010005904FF48B
:101D9000C05000900220CDE90101032003900A20E9
:101DA000049069460F48FEF7CFFF0D48001D0168FB
:101DB00041F0800101600A481430016841F480411B
:101DC00001600068002200F4804005901146432025
:101DD000FFF79CFB4320FFF78BFB06B010BD000014
:101DE000303802400000024070B50446C06801254A
:101DF00070B1022801D0FEF794FF2946D4F80404FC
:101E000001F0FDFBD4F80404BDE8704001F0BDBB57
:101E10000025F2E7D0F8040401F0DFBBD0F8040499
:101E200001F0E1BB10B5044690F8BC0301280BD0CB
:101E3000012084F8BC0384F83810206802F066FAA8
:101E4000002084F8BC0310BD022010BDD0F804248B
:101E500000F57171104601F0DEBB10B50446006854
:101E600094F8BC13012906D0012184F8BC13A16A9F
:101E7000012902D008E0022010BDA169012903D088
:101E8000816B41F480318163206801F0CDFE2068D0
:101E900002F0B2F9002084F8BC0310BD10B504466E
:101EA000D0F8040401F0F6FB2068D0F8001E41F0E1
:101EB0000101C0F8001E206A002804D00248016811
:101EC00041F00601016010BD10ED00E02DE9F04782
:101ED0000E46050065D0DFF81481D8F80000F7B28F
:101EE00000F00F00B04207D288F80070D8F8000068
:101EF00000F00F00B04254D128683D4C810712D544
:101F0000400703D5206840F4E0502060287800079F
:101F100003D5206840F4604020602068A96820F064
:101F2000F000084320602878C0072DD03049686849
:101F30000839012812D0022813D0032811D00968CB
:101F4000890700292DDA216821F00301014321606E
:101F5000FEF7E0FF814641F2883A0EE00968890306
:101F6000EFE709688901ECE7FEF7D4FFA0EB090170
:101F7000514502D90320BDE8F0872068696800F068
:101F80000C00B0EB810FEFD1D8F80010404601F003
:101F90000F01B14207D90770006800F00F00B0428E
:101FA00001D00120E7E72878400705D52068E968D7
:101FB00020F4E050084320602878000706D5206808
:101FC000296920F4604040EAC100206000F02EF84A
:101FD0002168084AC1F30311515CC84006490860F2
:101FE00006480068FFF74AFA0020C4E7003C0240B8
:101FF000083802408E68000800010020F800002028
:1020000001480068704700000001002004480549AD
:1020100000680968044AC1F38221515CC8407047D6
:1020200000010020083802409E680008154810B5DD
:10203000006810F00C02144813D04110042A0FD08D
:10204000082A0ED10F4C241F2268236802F03F0299
:102050005B0207D52068C0F38810A0FB010106E0F1
:10206000084610BD2168C1F38811A1FB00010023BF
:10207000FEF7A6F82168C1F30141491C4900B0FBF5
:10208000F1F010BD083802400024F4002DE9F84FAB
:10209000040076D02078DFF838A3CE4DC00749D0B1
:1020A000DAF800105046C1F38101012908D0006818
:1020B000C0F3810002280AD1281D0068400206D51D
:1020C0002868800336D560680028E2D032E0606876
:1020D000B0F5803F10D0B0F5A02F286810D020F4C4
:1020E00080302860286820F4802028606068A0B1D3
:1020F000FEF710FF06460CE0286840F48030F4E755
:1021000040F480202860F7E7FEF704FF801B642876
:1021100073D828688003F7D50CE0FEF7FBFE06466F
:1021200005E000BFFEF7F6FE801B6428F0D82868A3
:102130008003F7D42078DFF8A08280074FF00009F1
:102140003ED5DAF80010504611F00C0F09D00068A7
:10215000C0F3810002280BD19D48001F0068400297
:1021600006D42868800715D5E068012809D111E058
:10217000E068B8B10120C8F80000FEF7CBFE0646C3
:1021800005E020E1FEF7C6FE801B0228C0D82868C3
:102190008007F7D52868216920F0F80040EAC100DF
:1021A00028600DE0C8F80090FEF7B4FE064604E093
:1021B000FEF7B0FE801B02281FD828688007F7D4DE
:1021C0002078000722D5824E844861696C3671B14F
:1021D00001210160FEF79EFE074604E0FEF79AFE2D
:1021E000C01B022809D830688007F7D50EE0C0F878
:1021F0000090FEF78FFE074605E082E0FEF78AFEBC
:10220000C01B02287DD830688007F7D420784007AB
:1022100068D5DFF8BCB100270BF1380BDBF8000004
:10222000C0000BD4DBF8001041F08051CBF8001057
:10223000DBF80000012700F080500090684E306805
:10224000C00510D4306840F480703060FEF762FE44
:10225000009005E0FEF75EFE0099401A022850D873
:102260003068C005F6D55A4EA068683601280FD0F0
:102270000528306810D020F001003060306820F070
:1022800004003060A068B8B1FEF744FE00900FE093
:10229000306840F00100F4E740F004003060F7E7F8
:1022A000FEF738FE0099411A41F28830814266D823
:1022B00030688007F4D50EE0FEF72CFE009007E0B2
:1022C000FEF728FE0099411A41F28830814256D823
:1022D00030688007F4D42FB1DBF8001021F0805172
:1022E000CBF80010A069D0B3DAF800205146C2F351
:1022F0008102022A4AD00228484607D0C8F8600066
:1023000000E03CE0FEF706FE04463BE04746C8F826
:102310006000FEF7FFFD064605E000BFFEF7FAFD90
:10232000801B02282BD828688001F7D4D4E9070144
:102330000843A16A2B4A490802EB0141626A41EA5B
:102340008211084394F82C1040EA01612048001FD4
:10235000016001203866FEF7DDFD044605E034E04B
:10236000FEF7D8FD001B022809D828688001F7D5A0
:102370002BE000BFFEF7CEFD001B022802D9032090
:10238000BDE8F88F28688001F4D41EE00128F7D05A
:102390000868E26900F48001914214D1226A00F0D9
:1023A0003F0191420FD147F6C071626A01409142EC
:1023B00009D1A26A00F44031914204D1E16A00F0EF
:1023C0007060884201D00120DAE70020D8E70000E1
:1023D000083802400038024000004742800E474261
:1023E000007000400000FFFF10B5401EB0F1807F7C
:1023F00001D3012010BD4FF0E02460610F21601770
:1024000002F045F80020A06107202061002010BDE7
:10241000FEE701684A69D24352050FD46FF4806227
:102420004A61002140F8301F202242738173026903
:1024300042F00402026101730120704700207047DE
:102440002DE9F84F0446006889460B9D01689846BF
:10245000174641F4806101602068016841F4807191
:10246000016000954FF0011B0022594620460A9B4F
:1024700000F0DEF84FF4007A40B120680068C00533
:1024800001D5C4F840A00320BDE8F88F216809F009
:10249000FE0008612B46284920460A9A00F0FCF805
:1024A000F0BB20684169806900902A4620460A995D
:1024B00000F070F940B1206C04283AD1206801681E
:1024C00041F40071016034E0FEB2B8F1010F09D0AF
:1024D0002168380A08612A4620460A9900F05AF90C
:1024E0000028E8D1206806612A4620460A9900F0B3
:1024F00051F90028DFD12068016841F48071016042
:1025000000950022594620460A9B00F091F80028C9
:10251000B3D1216809F0FF0040F00100086100E03C
:1025200007E02B46044920460A9A00F0B5F8002837
:10253000AAD00120A8E70000020001002DE9F8431D
:10254000044600680D46DDE908970168984616467E
:1025500041F4807101604B4600224FF0011120468A
:10256000009700F065F848B120680068C00502D502
:102570004FF4007020640320BDE8F883216805F063
:10258000FE0008613B464A461549204600F084F8A3
:1025900088B920684169806900903A4649462046DA
:1025A00000F0F8F848B1206C042804D120680168D4
:1025B00041F4007101600120DEE7F5B2B8F1010FCE
:1025C00009D02168300A08613A464946204600F0A1
:1025D000E1F80028E7D1206805610020CCE7000081
:1025E0000200010070B516460D4604460DE0204677
:1025F000FFF70FFF08B1012070BD681C05D0FEF782
:1026000089FC801BA84207D835B120684069C043C7
:102610004007ECD4002070BD002044F8300F20218A
:102620006173A073216941F0200121612073E2E709
:102630002DE9F0471E4690460D460446C1F3074774
:10264000DDF8209008E0701C06D0FEF763FCA0EBDC
:102650000900B0420FD876B12068012F18D08069E8
:1026600025EA00000004000C14D000214145EAD006
:102670000020BDE8F087002044F8300F202161736E
:10268000A073216941F02001216120730120F0E74E
:102690004069E5E70121E9E72DE9F0479A469146CF
:1026A0000E46044600254FF02008C1F3074725E0F9
:1026B00020684069C043400514D42068016841F493
:1026C0000071016021686FF480604861256384F8BF
:1026D0003D8084F83E50206C40F00400206484F873
:1026E0003C501FE0B9F1FF3F08D0FEF713FCA0EB10
:1026F0000A0149450CD8B9F1000F09D02068012F13
:1027000013D0806926EA00000004000C0BD0CFE74C
:1027100044F8305F84F80D80A573206940F02000F4
:10272000206125730120BDE8F0874069EAE72DE9C3
:10273000F041002590460E460446202717E04069E8
:10274000C043C0060CD454F8301B6FF01000486131
:1027500044F810596777A577206A2062257717E03B
:10276000FEF7D8FBA0EB0800B04208D83EB12068C5
:102770004169C9434906E2D40020BDE8F08144F82C
:10278000305F6773A573206940F0200020612573D6
:102790000120F2E770B516460D4604460DE02046CE
:1027A000FFF737FE08B1012070BD681C05D0FEF7A9
:1027B000B1FB801BA84207D835B120684069C043EF
:1027C0000006ECD4002070BD002044F8300F20211A
:1027D0006173A073216941F0200121612073E2E758
:1027E000F0B500230A24302537261F4611E000BF2C
:1027F000B4EB107F02D905EB107C01E006EB107CF6
:1028000001F813C001EB430C00015B1C8CF8017054
:10281000DBB29342ECD3F0BD3EB5044600914FF4D9
:102820007A70CDE9012001232246D0210748FEF726
:102830003BFC002808D003B022460448BDE83040E5
:1028400003A1783001F0FCBD3EBD0000480200202D
:102850004932432072656164206572726F723A205A
:1028600025640D0A000000003EB5044600914FF4B7
:102870007A70CDE9012001232246D0210748FEF7D6
:102880000FFD002808D003B022460448BDE83040C0
:1028900003A1783001F0D4BD3EBD00004802002005
:1028A000493243207772697465206572726F723A9B
:1028B0002025640D0A00000000B587B000200190BB
:1028C00034A001220068029033A001A9006803909F
:1028D00032A00068049032A0006805902DA0006826
:1028E00006906B20FFF7C0FF6420FEF71BFA012261
:1028F00002A96B20FFF7B8FFC820FEF713FA0122E8
:1029000003A91A20FFF7B0FF012204A91920FFF73D
:10291000ABFF012269461B20FFF77EFF9DF80000F8
:10292000012220F01B008DF8000069461B20FFF7F4
:102930009BFF012269461C20FFF76EFF9DF80000F7
:10294000012220F018008DF8000069461C20FFF7D6
:102950008BFF012269461D20FFF75EFF9DF80000F6
:10296000012220F00F0040F003008DF800006946BE
:102970001D20FFF779FF012205A93720FFF774FF1B
:10298000012206A93820FFF76FFF6420FEF7CAF97D
:1029900007B000BD010000000300000004000000BB
:1029A0002200000010B502F055FE0246012801D0B9
:1029B0000FA112E018A003F017FFFFF77DFF02F050
:1029C00033FE040004D0BDE810401948FDF7B6BF3F
:1029D00018A003F009FF22460DA115489C3001F014
:1029E0002FFD1348BDE810409C3003F0FDBE0000F1
:1029F000436F756C64206E6F7420636F6E6E6563D9
:102A00007420746F204D5055393235303A2030786B
:102A100025640D0A000000004D5055393235302034
:102A20006973206F6E6C696E652E2E2E0D0A000084
:102A300024020020436F756C64206E6F7420636FF6
:102A40006E6E65637420746F20414B383936333AAB
:102A500020307800F0B587B014216846FDF7FAFB06
:102A60001D480024016841F080010160016801F007
:102A700080010591016841F001010160016801F0E8
:102A800001010591016841F008010160016801F050
:102A900008010591016841F00201016000680F4FD3
:102AA00000F002004FF4704605900022314638468F
:102AB000FEF72BFA0125CDE9005469460848029437
:102AC000FEF742F90096CDE9015469463846039471
:102AD000FEF73AF907B0F0BD30380240000C024072
:102AE0000000024010B500220F49104800F018FC09
:102AF00008B1FEF716F90E490C4800F0F1FD08B1D7
:102B0000FEF70FF90B49094800F016FA08B1FEF775
:102B100008F9064800F03AFE002803D0BDE810404E
:102B2000FEF7FFB810BD0000940000204003002015
:102B3000E0010020E4000020FEE770470148FEF7B6
:102B400065BE0000DC0500202DE9F0410446006868
:102B50000E46016C00EB4615D5F8080B27692023BB
:102B60004FF40042012F08D02C4FB9424FD101043D
:102B700049D500BFC5F8082B4DE0DFF8A4C05FEAD7
:102B8000007E04F5717711D5614503D9000401D5A4
:102B9000C5F8082B2046FFF759F93A46012120686D
:102BA00001F0B2F90820C5F8080B34E05FEA806E46
:102BB00002D5C5F8083B2EE010F0280F2BD1614557
:102BC00001D90004D6D4C6EBC60004EB8000D5F8CA
:102BD000102BD0F80412C2F312028A1AC0F8142281
:102BE000D0F808221144C0F80812F1B22046FEF7CE
:102BF000F3FC86B9D4F8100268B93A46012120687E
:102C000001F082F907E0800601D5C5F8083BF1B272
:102C10002046FEF7E1FC0020BDE8F0810A31544F68
:102C20000A30544F2DE9F84F0E46C1EBC60100EBB8
:102C3000810481460568D4E914103C34884202D9E5
:102C40000120BDE8F88F081AA168814200D2084629
:102C5000C01C870805EB46181BE000BFA0EB010A6B
:102C6000A068504500D282460AF10300870899F80F
:102C7000100000901FFA8AF3F2B22846E16801F0D2
:102C8000CBFBE16801EB0A00E060A16901EB0A00FF
:102C9000A061D8F8180980B2B84205D3D4E905017B
:102CA000814201D20028D9D1D4E90501884208D84F
:102CB00006F00F0101208840D5F834188143C5F88B
:102CC00034180020BDE770477047FEF7B5BB000021
:102CD00030B593B030216846FDF7BCFA14210CA83A
:102CE000FDF7B8FA18480025016841F080510160ED
:102CF000006800F0805011901448016841F4804150
:102D000001600068022400F48040119001200090CE
:102D1000000401908001CDE906400420089048207D
:102D2000CDE9090403200B906846FFF7AFF90CA921
:102D30000F2081E83100E002CDE90F0502210CA847
:102D4000FFF7C4F813B030BD4038024000700040B7
:102D50000548016841F47001016003494FF00060CB
:102D6000803908607047000088ED00E02DE9F041EF
:102D7000D0F89832D0F89022DAB101EB810400EB60
:102D800084040025E6694EB1C1EBC10703EB87035C
:102D90005B6CB6FBF3F703FB176323B1C2F8145166
:102DA0000020BDE8F08100231A46E56100F07BFCBD
:102DB000F6E70220F5E770B50546D0F8904200F03E
:102DC00087FBC4F80C01D5F8900248B1D5F89412ED
:102DD000D4F80401CA6804F586719047002070BDDC
:102DE000022070BD70B504460026812100F0B6FABD
:102DF000002501212046E56200F0B0FA822120463C
:102E0000C4F8585100F0AAFA2564D4F8900248B1E9
:102E1000D4F8940204F5247440688047206802F0D6
:102E2000DBFB2560304670BD10B5D0E9A44159B137
:102E300094F80001FF2807D08B6894F801212146FF
:102E40009847FF2084F80001002010BD0A2101806E
:102E50000048704708010020432101800048704766
:102E600058010020432101800048704714010020D0
:102E700043210180004870479C0100202DE9F0416A
:102E800004460026007C4FF48077012590B3402350
:102E900002228121204600F063FB4023E5620222EA
:102EA0000121204600F05CFB0823032282212046FA
:102EB000C4F8585100F054FB4FF48E70256402F0B2
:102EC000E3FEC4F89002F8B10546D4F89402006815
:102ED00080470020C5F81401C5F81801207CD5F8FA
:102EE000042198B140230121204600F045FB3046E3
:102EF000BDE8F081FFE73B4602228121204600F039
:102F00002FFB3B46E562CAE70126F0E73B46EAE7CE
:102F100010B5D0F8901269B1027C002AD1F80421D2
:102F200005D04023012100F027FB002010BD4FF405
:102F30008073F7E7022010BD02460220002902D06C
:102F40000020C2F894127047D0F89002C0F8041123
:102F500000207047D0F89002C0F81021C0F8081186
:102F6000002070472DE9FC410546D0F89072002002
:102F70008DF80000ADF80400064608780C4610F005
:102F8000600121D020293BD1E288AAB100066078F7
:102F900007D5D5F894128B6839469847E2883946A8
:102FA00026E087F80001A07987F80101E288394618
:102FB000284600F06AF828E0D5F8941260780022DC
:102FC0008B682146984720E0607820B10A2809D014
:102FD0000B2815D110E095F87402032810D10222B5
:102FE00001A905E095F87402032809D10122694678
:102FF000284600F064F808E095F87402032804D02D
:103000002146284600F036F802263046BDE8FC810D
:1030100010B5D0F89012A1B1D1F814210AB1012055
:1030200010BD0122C1F81421D1F810210263B1F8BA
:10303000102193B2D1F80821812100F034FB002047
:1030400010BD022010BD10B5D0F88C2252689047F8
:10305000002010BD134610B50A46002100F08CFA7E
:10306000002010BD134610B50A46002100F01BFBDE
:10307000002010BD10B50446802100F0F9FA20466A
:10308000BDE81040002100F0F3BA10B50323C0F8EA
:103090004821C0F86C32C0F84C2113460A46002182
:1030A00000F06AFA002010BD10B505210023C0F819
:1030B0006C121A46194600F05FFA002010BD10B5D8
:1030C0000223C261C0F86C32026213460A46002134
:1030D00000F0E9FA002010BD10B504210023C0F86B
:1030E0006C121A46194600F0DEFA002010BD0000EE
:1030F00010B50A46024903A000F0E2F8004810BDEE
:10310000E409002043444320436F6E666967000072
:103110001220088000487047B400002010B50A460D
:10312000024903A000F0CCF8004810BDE4090020DB
:1031300043444320496E7465726661636500000014
:103140000420088000487047B000002010B50A46EF
:10315000024903A000F0B4F8004810BDE4090020C3
:1031600053544D6963726F656C656374726F6E69F9
:103170006373000010B50A46024903A000F0A0F8EE
:10318000004810BDE409002053544D3332205669E5
:10319000727475616C20436F6D506F727400000023
:1031A00010B51A2008800A480168001D0468001D37
:1031B0000068081809D008220649FFF711FB0549E5
:1031C000042210312046FFF70BFB0248801E10BD81
:1031D000107AFF1FCA000020F8B5044648880D4643
:1031E000010A08294BD2DFE801F04A0409174A4ACC
:1031F0004048D4F88812207C0A6832E0207C0226FD
:103200000028D4F88C0205D0C16A68468847014678
:10321000467041E0816AF8E7C0B206282FD2DFE8A5
:1032200000F003080D12171CD4F88812207C4A689D
:1032300017E0D4F88812207C8A6812E0D4F888124B
:10324000207CCA680DE0D4F88812207C0A6908E066
:10325000D4F88812207C4A6903E0D4F88812207CD4
:103260008A6969469047014616E0207C38B9D4F84F
:103270008C02416B68468847F5E7207C20B12946DF
:103280002046FFF7F7FEF8BDD4F88C02016B6846C4
:103290008847014607204870BDF8000048B1EA8819
:1032A00052B1824200D90246ADF800202046FFF715
:1032B00006FFE8880028E6D12046FFF70DFFF8BD9D
:1032C00070B5002300281ED00446002502E06D1CC6
:1032D000EDB2641C2678002EF9D1022404EB4504DB
:1032E00014801278CA545B1C0322CA5400245B1C4D
:1032F00006E0CA545B1CDAB28C54521CD3B2401C98
:103300000278002AF5D170BD01004FF0000004D012
:10331000012901D0022901D0022070470120704705
:1033200010B580B1D0F88C3213B10023C0F88C32C4
:1033300009B1C0F88812012180F87412027000F0FF
:10334000CBF8002010BD022010BD10B5D0F89802B7
:10335000FEF776F9BDE81040FFF7D6BF10B5D0F8FC
:103360009802FEF747F9BDE81040FFF7CDBF2DE901
:10337000F0411746044651B1D4F88C0242691AB1A3
:1033800094F87402032851D00220BDE8F081D4F8EB
:103390006C32002504F11400022B03D0042B3AD028
:1033A000C3B33CE0D0E903639E4207D9F11AC16080
:1033B0008AB239462046FFF755FE12E08068B0FB1E
:1033C000F3F103FB110199B9984211D3D4F87012AB
:1033D00088420DD2002211462046FFF743FEC4F872
:1033E000705200231A461946204600F0C5F816E030
:1033F000D4F88C02C16829B194F87402032801D171
:10340000204688478021204600F032F92046FFF709
:103410004BFE04E0FFE78021204600F029F994F8F4
:103420007802012804D184F8785201E020469047C0
:103430000020AAE770B51546044649B1D4F88C02BD
:1034400082691AB194F87402032830D0022070BD4A
:10345000D4F86C1204F5A070032902D005291ED0FF
:1034600027E0D0E903218A420BD9531AC3600846EA
:10347000834200D303469AB229462046FFF7EAFD6D
:1034800017E0D4F88C02016929B194F8740203287A
:1034900001D1204688472046FFF71EFE09E00020A4
:1034A0000146C4F86C02204600F0E2F801E0204634
:1034B0009047002070BD0020704710B5012180F8B2
:1034C0007412D0F88C22017952689047002010BD08
:1034D000D0F89802FEF7E2B810B5017839BB15496B
:1034E0000222C1F80404C0F898124FF0A04008600E
:1034F000042048600020C1E90320C1E906200862D9
:103500004862C86208630846FEF7BAFB08B1FDF7D7
:1035100008FC80210748FEF72CF8402200210548CE
:10352000FEF72BF8802201210248FEF726F8002042
:1035300010BD0000DC0500200A0601F07F01D0F874
:103540009802C1EBC10100EB810002D590F83E006A
:10355000704790F8FE0170470020704700207047C8
:1035600010B51C461346D0F898022246FEF79FF885
:10357000BDE81040FFF7C8BE10B5D0F89802FEF7BE
:10358000C6F8BDE81040FFF7BFBE70B50022044684
:1035900040231146FFF7E4FF40260125C4F850619F
:1035A0003346002280212046C4F84451FFF7D8FF5B
:1035B0006662A56184F874520020C4F86C026060F1
:1035C000C4F87C02D4F8900228B1D4F88C0200210F
:1035D000426820469047002070BD90F8751280F830
:1035E00074120020704710B590F87412032904D1AA
:1035F000D0F88C12C96901B18847002010BD017450
:103600000020704710B5D0F89802FEF70BFCBDE81B
:103610001040FFF779BE70B5044600F520700546EE
:1036200000F04AF80120C4F86C02B4F88602C4F82D
:10363000700294F8800210F01F010AD001290DD009
:10364000022910D000F08001204600F011F800207F
:1036500070BD2946204600F09EF8F8E7294620462E
:1036600000F0CAF9F3E72946204600F01DF9EEE71D
:1036700010B5D0F89802FEF76EF8BDE81040FFF7DD
:1036800043BE10B5D0F89802FEF7E7FBBDE8104046
:10369000FFF73ABE90F8741280F87512042180F892
:1036A00074120020704710B5D0F89802FEF78DF81C
:1036B000BDE81040FFF728BE0A7802704A784270D1
:1036C0008A78CB7802EB032242800A794B7902EBAD
:1036D000032282808A79C97902EB0121C180704777
:1036E0000246002011B1C2F88C12704702207047C8
:1036F00010B5D0F88C2202241AB11268904700B994
:103700000024204610BD000070B50E461E4D89787D
:1037100004462970012931D894F8740202280BD08C
:1037200003280FD031462046FFF7A4FC2978204615
:10373000BDE87040FFF787BCD9B10320616084F811
:10374000740209E071B16068884212D0C1B22046AB
:10375000FFF779FC297861602046FFF7C9FF02284E
:103760000CD006E0022084F8740220466160FFF766
:103770006AFC2046BDE87040FFF7AEBC31462046EB
:10378000BDE87040FFF776BC0401002010B5FFF7DC
:1037900078FF002010BD2DE9F0410A78002612F0D4
:1037A000600208D0202A01D0402A70D1D0F88C22A3
:1037B000926890476DE04B78002201250A2B66D273
:1037C000DFE803F0405D6557650805652C29FFF7C4
:1037D00003FD5EE004468888D8B9C888C8B948881F
:1037E000802816D200F07F0794F87402032810D0C6
:1037F00084F8767239462046FFF704FF2046FFF72B
:103800006BFC1FB1022084F8740242E084F8745209
:103810003FE020463BE0FFF777FF3AE0CB88012B03
:1038200035D190F87432012B04D0022B02D0032B37
:103830002DD104E08260012200F1080116E001228E
:10384000011D13E090F87422012A03D0022A01D04E
:10385000032A1CD1CA88022A19D1C560D0F87C126B
:1038600009B10321C160022200F10C01FFF727FC1E
:103870000FE0498801290CD1C0F87C5211E090F882
:103880007432012B08D0022B06D0032B04D0FFF793
:10389000F1FB3046BDE8F08149880129F9D1C0F833
:1038A0007C22FFF719FCF4E72DE9F0410A460446B3
:1038B00010780027097910F060030AD0202B01D07E
:1038C000402B50D1D4F88C0211468368204698478B
:1038D0008FE0C0F34110012806D05078D0B3012802
:1038E0002AD003283FD107E0D4F88C021146836820
:1038F0002046BDE8F041184794F87402022802D02F
:10390000032872D10AE071B380296ED02046FFF7F8
:10391000AFFE80212046FFF7ABFE6AE0508838B941
:1039200031B1802904D0D08810B92046FFF7A0FE1D
:103930002046FFF7D1FB5CE094F874020228E2D045
:10394000032852D1508898BB4806F1D02046FFF793
:10395000FCFCEDE7FFE794F874020026022803D090
:10396000032842D112E040E009B180293DD1080688
:1039700001F07F0000EB800004EB800101D51431E1
:1039800001E001F5A07102220E602AE0080601F0B4
:103990000F0000EB800004EB80000AD5806920B3A3
:1039A00001F07F0000EB800004EB800514350BE094
:1039B0001FE0D0F84401C0B101F07F0000EB8000AF
:1039C00004EB800505F5A07541B1802906D020469D
:1039D000FFF7B2FD10B10120286000E02E60022246
:1039E00029462046FFF76BFB03E011462046FFF710
:1039F00041FB3846BDE8F08170B5054608780C46B5
:103A000010F0600003D0202801D0402816D195F88E
:103A10007402012803D0022801D003280ED1207996
:103A200001280BD8D5F88C02826828469047E18897
:103A3000014306D12846FFF74FFB02E02846FFF777
:103A400019FB002070BD000070B50A78012302F058
:103A50000F054E78AB401B4CD0F81C58012E17D0E8
:103A600045EA0343C0F81C3800EB4210D0F8002BA5
:103A700012040BD4D0F8002B0B89C978C3F30A03C6
:103A80001A4344EA81410A43C0F8002B002070BD6C
:103A90009BB21D43C0F81C5800EB4210D0F800390F
:103AA0001B04F3D4D0F800390D89C978C5F30A0591
:103AB00089042B4341EA82510B432343C0F8003968
:103AC000E4E7000000800010D0F800196FF30A014D
:103AD000C0F80019D0F80818C1F34101022905D136
:103AE000D0F8001941F00301C0F80019D0F804180B
:103AF00041F48071C0F804180020704770B5044686
:103B000006990A9E049D0D98012916D0E06840F0A0
:103B10004000E060204600F02BF8A16B1EB321F4BA
:103B20008031A163012D07D1A16841F00601A16098
:103B3000A16841F02001A16070BDA16B21F480312A
:103B4000A163E168094A1140E160E16821F4401194
:103B5000E160012803D1E06840F48010E060204675
:103B600000F006F8DEE741F48031DAE7BFFFBDFF81
:103B700001220C4902E0521C8A420BD80369002B37
:103B8000F9DA026942F001020261012204E0521CEA
:103B90008A4201D9032070470369DB07F7D100206F
:103BA00070470000400D030030B50B784D780122BE
:103BB00003F00F0402FA04F4012DD0F83C5817D09A
:103BC00025EA0444C0F83C48D0F81C48097801F0C4
:103BD0000F018A4024EA0241C0F81C1800EB431090
:103BE000D0F8001B0E4A1140C0F8001B002030BD69
:103BF000A4B2A543C0F83C58D0F81C48097801F09D
:103C00000F018A4091B28C43C0F81C4800EB43106E
:103C1000D0F80019034A1140C0F80019E6E7000087
:103C20000078F3EF007833EC10B5D0F8041821F0E9
:103C30000201C0F804180320FDF774F8002010BD3D
:103C400010B5D0F8041841F00201C0F804180320A0
:103C5000FDF768F8002010BD2DE9F04F0025DDE9E3
:103C60000BCB0E460446DDF84090099F28462946B6
:103C700004EB8002C2F80411401C0F28F8D3B9F1FC
:103C8000000F204618D0006820F400122260A06BBC
:103C900040F40022A26308468846C4F8000ED4F817
:103CA00000182046C4F80018BCF1010F10D0D0F85D
:103CB000001841F0030110E0806B40F40012A26391
:103CC000A06B20F40022A263A06B20F48022E1E725
:103CD000D0F800180BB141F00101C0F80018102114
:103CE00000F0A0FA00B10125204600F08BFA00B1E7
:103CF00001254046C4F81088C4F81488C4F81C880C
:103D000000214FF000634FF090484FF67F3A14E0E7
:103D100004EB4112D2F800C9BCF1000F06DA11B170
:103D2000C2F8008904E0C4F8003901E0C2F80009D3
:103D3000C2F81009C2F808A9491C8E42E8D800212F
:103D400015E000BF04EB4112D2F800CBBCF1000F2C
:103D500006DA11B1C2F8008B04E0C4F8003B01E0C0
:103D6000C2F8000BC2F8100BC2F808AB491C8E4217
:103D7000E8D8D4F8101821F480722146C4F810282D
:103D8000012F08D1134AC1F83028D1F83018124A4F
:103D90001143C4F83018A0616FF0804060611FB912
:103DA000A06940F01000A061A0690C490843A0611F
:103DB000BBF1000F03D0A06940F00800A061B9F189
:103DC000010F03D1A06906490843A0612846BDE858
:103DD000F08F0000000180000300010000383C80EB
:103DE00004000040816821F00101816000207047DB
:103DF00070B50D784E78434CEBB200EB4313012EB7
:103E00001FD0D3F8100B6FF31200C3F8100BD3F8C8
:103E1000100B2040C3F8100B486908B1886848614E
:103E2000D3F8100B40F40020C3F8100BD3F8100B9C
:103E30008C68C4F312042043C3F8100B012A55D038
:103E400058E04E69002ED3F8106932D06FF3120695
:103E5000C3F81069D3F810692640C3F810694E6999
:103E60008C68A64200D94C61D3F8104944F4002470
:103E7000C3F81049D3F810494E69C6F3120634430B
:103E8000C3F81049012A22D000EB4512D2F80039BC
:103E900043F00443C2F800394A6932B3D0F83428F9
:103EA000097801F00F03012199400A43C0F8342832
:103EB00026E02640C3F81069D3F8104944F40024E2
:103EC000C3F81049D3F810496FF31204D8E7096911
:103ED00019B100EB4512C2F8141900EB4510D0F8E7
:103EE000001941F00441C0F8001909E0C86808B1A0
:103EF000C3F8140BD3F8000B40F00440C3F8000BD8
:103F0000002070BDFFFF07E010B5036C134CA34207
:103F100003D9D0F8003B002B1EDB0023C0F8103B78
:103F2000D0F8103B43F40023C0F8103BD0F8103B0E
:103F300043F01803C0F8103BD0F8103B43F0C043E7
:103F4000C0F8103B012907D1C0F8142BD0F8001B92
:103F500041F08021C0F8001B002010BD0A30544FF2
:103F60004A780B78012A00EB43100BD0D0F8002BD5
:103F700022F40012C0F8002BC978032914D00229BA
:103F800012D017E0D0F8002922F40012C0F800295E
:103F9000C978032901D002290CD1D0F8001941F0C9
:103FA0008051C0F8001905E0D0F8001B41F08051A5
:103FB000C0F8001B002070470A784B78D1B200EBA4
:103FC0004110012B12D0D0F8001B002906DB2AB1CA
:103FD000D0F8001B21F08041C0F8001BD0F8001B76
:103FE00041F40011C0F8001B00207047D0F8001900
:103FF000002906DB2AB1D0F8001921F08041C0F871
:104000000019D0F8001941F40011C0F80019EBE7CD
:10401000F8B50C784F78774DE3B26FF0604600EB5F
:104020004313012F26D0D3F8104B6FF31204C3F8BB
:10403000104BD3F8104B2C40C3F8104B4C69002C9C
:1040400074D08D682C44641EB4FBF5F4D3F8105B77
:10405000A4B206EAC4463543C3F8105BD3F8105B3C
:104060008E686643C6F312042543C3F8105B012A29
:1040700071D0A6E04F691FB3D3F810796FF3120720
:10408000C3F81079D3F810792F40C3F810794F692D
:104090008D682F447F1EB7FBF5F506EAC545D3F8BA
:1040A00010693543C3F81059D3F810594E69C6F357
:1040B00012063543C3F81059CD78012D10D01BE0FE
:1040C000D3F810692E40C3F81069D3F8105945F49D
:1040D0000025C3F81059D3F810596FF3120509E001
:1040E000D3F8105925F0C045C3F81059D3F810592A
:1040F00045F00055C3F81059012A18D000EB4413BD
:10410000D3F8004944F00444C3F80049CC78012CAA
:104110002FD04A6962B3D0F83428097801F00F0330
:10412000012199400A43C0F8342860E036E00A696A
:104130001AB100EB4413C3F81429C97801290FD12F
:10414000D0F80818C90500EB4411D1F8002903D4B0
:1041500042F0005202E030E042F08052C1F8002903
:1041600000EB4410D0F8001941F00441C0F80019E8
:104170003DE0D0F80848E405D3F8004902D444F003
:10418000005401E044F08054C3F8004900928A8A48
:1041900093B20A78C96800F03FF928E0D3F8104BD1
:1041A0008D68C5F312052C43C3F8104BD3F8104BA0
:1041B00044F40024C3F8104B59E7CA680AB1C3F8A5
:1041C000142BC97801290CD1D0F80808C005D3F800
:1041D000000B02D440F0005001E040F08050C3F8E2
:1041E000000BD3F8000B40F00440C3F8000B002094
:1041F000F8BD0000FFFF07E0816841F00101816028
:1042000000207047002110220261054A491C91429A
:1042100001D9032070470369DB06F7D400207047FB
:10422000400D03000022202343EA8111016105496A
:10423000521C8A4201D90320704703699B06F7D4B8
:1042400000207047400D0300D0F8080810F0060069
:1042500004D0022803D0062801D00F207047022086
:104260007047406900F001007047D0F81818D0F886
:104270001C08084080B27047D0F81818D0F81C0805
:104280000840000C704710B5D0F81038D0F834282A
:1042900001F00F0400EB4110E24002F00102D0F8FF
:1042A000080943EAC212104010BD00EB4111D1F8D9
:1042B000081BD0F81408084070474169806908401D
:1042C0007047D21C10B59308002200F5805002E020
:1042D0000468521C10C19A42FAD3084610BD10B5AA
:1042E000C26822F0C042C260012902D029B1012077
:1042F00010BDC16841F0005102E0C16841F0804149
:10430000C1603220FCF70EFD002010BDD0F800285F
:1043100022F4FE62C0F80028D0F800284FF4FE63B3
:1043200003EA01110A43C0F800280020704700008A
:10433000022A3ED1264A274B0A449A4201D20F2133
:1043400038E0254A254B0A449A4201D20E2131E039
:10435000234A244B0A449A4201D20D212AE0224AE0
:10436000224B0A449A4201D20C2123E0204A214BDD
:104370000A449A4201D20B211CE01F4A1F4B0A44F7
:104380009A4201D20A2115E01D4A1E4B0A449A4264
:104390000FD31D4A1D4B0A449A4201D2082109E05D
:1043A0001B4A11441B4A914201D2072102E0062117
:1043B00000E00921C26822F47052C260C2684FF462
:1043C000705303EA81210A43C26000207047000055
:1043D000405327FF00350C00401E1BFF40420F00DA
:1043E00000DC0BFF804F1200808CF9FE20D61300FA
:1043F00060B6E5FE60E3160000D3CEFE40771B00FA
:10440000C05BB3FEC091210000CA91FE2075380048
:10441000E05459FEE09C410010B5029C64B9DB1CDD
:104420009C0800EB0230002300F5805002E004C934
:1044300002605B1CA342FAD3002010BDFEE700001F
:104440000FB4084B10B504A902AA039800F036FB7C
:10445000044602A9002000F0C8FE204610BC5DF80A
:1044600014FB0000EB5100084100080218BF0420B3
:104470000A0E18BF40F001004FF07F4232EA0101FE
:1044800008BF40F00200012808BF05207047090757
:10449000090E002804DB00F1E02080F800147047CA
:1044A00000F00F0000F1E02080F8141D70470000BC
:1044B00010B54FF00E402DED028BB0EE408A18EE95
:1044C000104A00EB4400B0F1506F4AD84FF0FC4066
:1044D000B0EB440F22D2B0EEC80AF7EE000A30EE7D
:1044E000C00AF6EE000A60EE208A18EE900A01F08B
:1044F000AEFF01EE100A14F0004F1DBFDFED2D0AD4
:104500009FED2D0AB1EE411ADFED2C0A08BF9FED99
:104510002C0AF8EE001A21EE218A05E0DFED290AC7
:1045200068EE088AB0EE600A9FED271ADFED271AC1
:1045300030EE080A48EE811A9FED251A08EEA11AFE
:10454000DFED241A48EE811A9FED231A08EEA11A16
:1045500068EE281ABDEC028B01EE810A30EE200ACB
:1045600010BD4FF0E440B0EB440F0CD918EE100A28
:10457000FFF77AFF042808BF00F0C0F9B0EE480A40
:10458000BDEC028B10BD4FF07F40B0EB440F07D263
:10459000B0EE480ABDEC028BBDE8104000F0A0B9B7
:1045A000012000F0C3F9BDEC028BBDE8104000F023
:1045B0009DB900000000C9BF22AAFDB90000C93F93
:1045C00022AAFD390000000024FE1C3DC78AD83C09
:1045D0001E67383D1B93993DAFAA2A3E10EE100A84
:1045E00010B510EE901A4FF0684202EB40032DED2B
:1045F000028BB3F1654F3CBF02EB4102B2F1654F54
:104600007CD200BFC0F3C753C1F3C7529A1A1B2A0A
:1046100009DD10F0004F14BF9FED6E0A9FED6E0A8A
:10462000BDEC028B10BD12F11A0F1BDA11F0004F16
:1046300009D010F0004F0CBF9FED680A9FED680A8B
:10464000BDEC028B10BD80EE208A18EE100AFFF739
:104650000BFF042808BF00F051F9B0EE480ABDEC8A
:10466000028B10BD4200B2EB410F37D910F0004F62
:1046700019BFDFED5C1A9FED5C1ADFED5C1A9FED50
:104680005C1AB0EE602A0A46F1EE400A80F0004162
:10469000B0EE420A10460A1A5200B2F1807F34D2BC
:1046A000484010F0004FDFED532A9FED533A1DBFF5
:1046B000BEEE002A71EEE21A31EE431AB6EE002A7F
:1046C00004BF71EEA21A31EE031AF0EE402A42EE58
:1046D000602A40EE020A82EEA02A18E011F0004F94
:1046E00004BF9FED461AF0EE411AD4D010F0004FEF
:1046F0001CBFDFED431A9FED431A00E026E004BF24
:10470000DFED411A9FED411AC5E780EE202A22EE27
:10471000020ADFED3F0ADFED3F2ABDEC028B40EEDF
:10472000202ADFED3D0A40EE220ADFED3C2A40EE72
:10473000202ADFED3B0A40EE220A22EE000A00EEBC
:10474000201A31EE020A30EE210A10BD4FF07F42EE
:10475000B2EB400F28BFB2EB410F05D2BDEC028B8C
:10476000BDE8104000F0BFB840EA01035B0008BF9D
:1047700041F0FF410BD0B2EB400F08BFB2EB410F4D
:1047800008D120F0804000EE100A21F0804100EEB8
:10479000901A37E7B2EB400F12BF5FEA410240F0D8
:1047A000FF4001F000413FF42DAF4A0092EA400380
:1047B0003FF528AF002AACBF9FED1A1A9FED1A1AD9
:1047C00020EE010A60EE810A10EE100A10EE901A37
:1047D00018E70000DB0FC9BFDB0FC93FDB0F494003
:1047E000DB0F49C00000C9BF22AAFDB90000C93FC4
:1047F00022AAFD390060ED3EC30ACE37000000005A
:10480000000049C022AA7DBA0000494022AA7D3A90
:104810002DAD65BD8FB8D53D0FB511BE61C84C3EFD
:10482000A8AAAABE0000804F0000802F00B52DED81
:10483000048BB0EE409AF0EE609A83B051EC190B05
:10484000FBF7BDFF41EC180B18EE100A18EE901A9A
:104850008DED008B002818BF0120084320F0004098
:10486000C0F17F6000F1E040C00F14D019EE101AC3
:1048700019EE900A8DED009B002918BF0121084315
:1048800020F00040C0F17F6000F1E040C00F04BFA5
:10489000012000F04BF8B0EE480A03B0F0EE680AD1
:1048A000BDEC048B00BD10B52DED028BB1EEC08ABE
:1048B00018EE100A20F00040C0F1FF40C00F0AD0EF
:1048C00010EE100A20F00040C0F1FF40C00F04BFFE
:1048D000012000F02BF8B0EE480ABDEC028B10BDB1
:1048E00030EE000A704730EE200A7047DFED020A12
:1048F00080EEA00A70470000000000009FED020A51
:1049000020EE000A704700000000001002E008C816
:10491000121F08C1002AFAD170477047002001E039
:1049200001C1121F002AFBD1704700000149086035
:1049300070470000200200202DE9FF5F82B00021B7
:10494000DDE90430020DDDF840B0034318D044F631
:104950001050A2F2FF3242431514119801281FD0C3
:10496000A5EB0B00401C5FEA000A4FF000064E4F1B
:10497000DFF83891B046504615D5CAF1000413E06F
:10498000119801244AA3012801D16FEA0B01029872
:10499000119AC0E90031C0E9024206B0BDE8F09FBB
:1049A000CBF10000DFE704460021404A491842EB02
:1049B0000450CDE9001012E0E00707D032463B4634
:1049C00040464946FBF7FFFC8046894632463B4657
:1049D00010461946FBF7F7FC06460F466410002CFC
:1049E000EAD1DDE90401DDE90023BAF1000F06DABE
:1049F000FBF7E9FC42464B46FBF7E5FC05E0FBF71D
:104A000054FD42464B46FBF750FD04460E4600223D
:104A1000284BFBF73DFF03D84FF0FF30014607E07E
:104A20000022254B20463146FBF726FCFBF718FFFA
:104A3000102409E0002C0ADB0A220023FBF7C0FB4C
:104A4000039B30321A55641E50EA0102F2D1641CF5
:104A5000039AC4F111031444119A012A03D00122CC
:104A600008430DD10AE0084304D000204FF0110B99
:104A7000119072E7A3EB0B056D1E0DE05B4504DDA5
:104A80004FF0000205F1010504E003DA4FF00002E7
:104A9000A5F10105002AECD002981199C0E9023174
:104AA000C0E9004579E70000000014400000F03F35
:104AB000300000000000F0430000E03F2DE9FF4F10
:104AC00095B09B468946064600250FE2252877D1FA
:104AD00000242746F84A0121059400E0044316F813
:104AE000013F203B01FA03F01042F7D130782A2829
:104AF00011D06FF02F033078A0F13002092A16D8B8
:104B0000059A44F0020402EB820203EB42021044D5
:104B1000761C0590EFE759F8042B0592002A03DA7A
:104B2000504244F40054059044F00204761C30785E
:104B30002E2816D116F8010F44F004042A280DD0AF
:104B40006FF02F023078A0F13003092B09D807EB62
:104B5000870302EB4303C718761CF3E759F8047B7D
:104B6000761C30786C280FD006DC4C2817D06828CB
:104B70000DD06A2814D104E0742810D07A280FD1FF
:104B80000DE044F400140AE044F4801401E044F41D
:104B900040147278824202D104F58014761C761C8F
:104BA000307866280BD013DC582877D009DC002831
:104BB00075D04528F6D04628F4D047281AD19DE173
:104BC00018E0632835D0642879D0652812D195E1A2
:104BD000702873D008DC6728F1D069286FD06E2860
:104BE0000DD06F2806D1B5E073282CD0752875D06C
:104BF000782874D05A46179990476D1C75E1C4F314
:104C00000250022809D003280DD0D9F8001004283A
:104C10000DD00D6009F1040967E1D9F80010EA1719
:104C2000C1E90052F6E7D9F800100D80F2E70D70E7
:104C3000F0E719F8041B8DF8001000208DF8010032
:104C4000EA46012003E059F804AB4FF0FF3061075A
:104C50004FF0000102D40DE008F101018846B9428D
:104C60000FDA8045F8DB1AF808100029F4D108E0C3
:104C700008F1010188468142FADB1AF80810002980
:104C8000F6D105985B46A0EB080721463846179AEF
:104C900000F094FA284400EB080507E04DE029E114
:104CA0000DE01AF8010B5A4617999047B8F1010820
:104CB000F7D25B4621463846179A13E142E00A22B2
:104CC0000092C4F302524FF0000A022A08D059F8A9
:104CD00004CB032A4FEAEC710AD00DE029E02AE068
:104CE00009F1070121F00702F2E802C1914609E04B
:104CF0000FFA8CFC4FEAEC71042A03D14FFA8CFCBA
:104D00004FEAEC71002907DA0A460021DCF1000CB9
:104D100061EB02012D2202E0220504D52B228DF841
:104D20000420012203E0E20701D02022F7E79046A9
:104D300059E00A2102E010220DE010214FF0000A94
:104D400000910BE010224FF0000A44F00404082701
:104D5000009203E008224FF0000A0092C4F30252CE
:104D6000022A05D059F804CB0021032A08D009E013
:104D700009F1070121F00702F2E802C1914605E0BE
:104D80001FFA8CFC042A01D10CF0FF0C4FF0000834
:104D9000220728D5702806D0009B83F0100353EA21
:104DA0000A0305D00EE040228DF80420012208E01D
:104DB0005CEA010206D030228DF804208DF805004F
:104DC00002229046009B83F0080353EA0A030AD1AB
:104DD0005CEA010201D1620705D530228DF804207A
:104DE0004FF001087F1E582804D034A003900EA86D
:104DF00002900DE036A0F9E753466046009AFBF7B3
:104E0000DFF984460398825C0298401E029002708B
:104E10005CEA0100F0D1029806A9081A00F1200A04
:104E2000600702D524F4803400E00127574502DDF5
:104E3000A7EB0A0000E0002000EB0A0100900598B3
:104E40004144401A0590E00306D45B462146179A78
:104E5000059800F0B3F90544002706E001A85A467A
:104E6000C05D179990476D1C7F1C4745F6DBE0033A
:104E70000CD55B462146179A059800F09FF905442A
:104E800004E030205A46179990476D1C0099481E3F
:104E900000900029F5DC08E0029802995A46007853
:104EA000491C0291179990476D1CBAF10001AAF1B3
:104EB000010AF1DC65E100000928010030313233DC
:104EC0003435363738396162636465660000000046
:104ED0003031323334353637383941424344454630
:104EE0000000000000F058F90544761C30780028D6
:104EF0007FF4ECAD19B02846BDE8F08F620700D40E
:104F0000062709F1070222F0070CFCE80223E1461C
:104F100003F000485FEA080C02D00FF2702C0DE09D
:104F20005FEA045C02D50FF2682C07E05FEAC47CFC
:104F300002D00FF2602C01E0AFF2700C4FF0FF389E
:104F400023F00043CDF850C065280CD006DC45287E
:104F500009D046281DD047283DD13DE0662818D00D
:104F600067287ED138E00021112F01DB112000E0FD
:104F7000781CCDE9000106A90EA8FFF7DDFCDDE9EC
:104F80000F010E9A03910021009207F1010A04918A
:104F90004DE04FF000400097CDE9011006A90EA8A2
:104FA000FFF7CAFCDDE90F0203920E9B1199002264
:104FB000DDF80CA00093049211B9791C00EB010AF2
:104FC000B7EB0A0004D4C0F1FF3007F1010A0490E6
:104FD000AAEB0700019044E0012F00DA012700212D
:104FE000112F01DD112000E03846CDE9000106A9AE
:104FF0000EA8FFF7A1FCDDE90F010E9A0391002135
:1050000004910092BA4621070CD40399514500DA65
:105010008A46BAF1010F05DD009AAAF10101515C3F
:10502000302908D0B84202DA10F1040F06DA012163
:10503000CDE9011015E0AAF10101E9E7002805DC3E
:10504000049901440491AAEB000102E0411C51457E
:1050500000DD8A460499401A401C01904FF0004040
:105060000290200704D40198504501DBCDF804805C
:1050700000208DF84F0002980DF14F07B0F1004F5E
:1050800025D02B200E9002984FF0020800280CDA51
:10509000404202902D200E9007E00A210298FBF773
:1050A000B3FA3031029007F8011DB8F10001A8F100
:1050B0000108F2DC02980028EFD1791E0E980870E2
:1050C000307800F0200040F0450007F8020D12A8EB
:1050D000C01B00F107081498007800B1012000EB14
:1050E0000A01019801EBE07105984144401A401E05
:1050F0000590E00306D45B462146179A059800F018
:105100005DF805441498007818B15A4617999047ED
:105110006D1CE00324D55B462146179A059800F0E4
:105120004DF805441CE00498002807DBDDE9030185
:10513000884203DD0098405C179901E01799302000
:105140005A469047049805F10105401C04900198C7
:10515000401E019004D12E205A46179990476D1C8D
:10516000BAF10001AAF1010ADDDC05E017F8010B34
:105170005A46179990476D1CB8F10001A8F1010833
:10518000F4DC5B462146179A0598ABE62D0000003B
:105190002B000000200000002DE9F041044600250E
:1051A0001E461746880404D405E039462020B0473F
:1051B0006D1C641EF9D52846BDE8F0812DE9F0414B
:1051C000044600251E469046C80301D5302700E05E
:1051D0002027880404D505E041463846B0476D1CB9
:1051E000641EF9D52846BDE8F0810A68531C0B609F
:1051F000107070470149024800F004B830020020E6
:10520000780000202DE9F34FD7A08DB000680990F9
:10521000D6A000240068A146CDE90740D4A0A2464C
:1052200000680A90D3A0A34600680B90D2A0012288
:1052300000680C90009409A901946B20FDF714FB01
:105240006420FBF76FFD012208A96B20FDF70CFB22
:10525000012207A96C20FDF707FBC820FBF762FDC0
:10526000012207A93820FDF7FFFA012207A9232010
:10527000FDF7FAFA012207A96B20FDF7F5FA0122E2
:1052800007A92420FDF7F0FA012207A96A20FDF7FB
:10529000EBFA01220AA96A20FDF7E6FA0F20FBF7D4
:1052A00041FD012208A91A20FDF7DEFA012207A913
:1052B0001920FDF7D9FA012207A91B20FDF7D4FA1E
:1052C000012207A91C20FDF7CFFA832002904FF49A
:1052D000804501220BA96A20FDF7C6FA01220CA91C
:1052E0002320FDF7C1FA2820FBF71CFD012207A9A6
:1052F0002320FDF7B9FA022204A97220FDF78CFAE7
:10530000BDF810000C2140BAB0FBF1F600272CE0EC
:105310000C2204A97420FDF77FFABDF81000BDF837
:105320001A8040BA0FFA80FCBDF81200E34440BA7C
:1053300003B2BDF81400DDF800C040BA02B2BDF8F7
:105340001600634440BA01B2BDF818000093019BF7
:1053500040BA98FA98F800B20FFA88FE1A447F1CF7
:105360000C448144F244BFB20192B742D0D39BFBBC
:10537000F6F00390009894FBF6FB90FBF6F000909B
:10538000019899FBF6F890FBF6F09AFBF6F60028E8
:1053900001DD471B00E04719CBF10000C11700EB0E
:1053A0009170810A8DF8101080088DF81100C8F1F5
:1053B0000000C11700EB9170810A8DF8121080086F
:1053C0008DF813007042C11700EB9170810A8DF8BF
:1053D000141080088DF81500012204A91320FDF790
:1053E00043FA04AC01221420611CFDF73DFA0122AE
:1053F000A11C1520FDF738FA0122E11C1620FDF74B
:1054000033FA0122211D1720FDF72EFA0122611D1A
:105410001820FDF729FA00EE10BA0298F8EEC00A3B
:1054200000EE100A0D98B8EE400A80EE801A00EEE9
:10543000108AF8EEC00A80ED001A029800EE100AF9
:105440000D98B8EE400A80EE801A00EE106AF8EE71
:10545000C00A80ED011A029800EE100A0D98B8EE0D
:10546000400A80EE801A80ED021A039800EE100ABE
:105470000E98F8EEC00A00EE105AB8EE400A80EE20
:10548000801A80ED001A009800EE100A0E98F8EECF
:10549000C00A00EE105AB8EE400A80EE801A00EE04
:1054A000107AF8EEC00A00EE105AB8EE400A80ED0D
:1054B000011A80EE801A0E9880ED021A2FA001F0DA
:1054C00093F932A001F090F934489FED350A35A1E7
:1054D000D0ED020A60EE800AFDEEE00ACDED000A92
:1054E000D0ED010A60EE800AFDEEE00A10EE903A7F
:1054F000D0ED000A903020EE800ABDEEC00A10EE1A
:10550000102AFEF79DFF2548903001F06DF9DFF875
:10551000A480D8F80800FBF748F806460F46D8F8EC
:105520000400FBF742F804460D46D8F80000FBF7EC
:105530003CF841EC100B8DE8F000184853EC102BB0
:105540001DA19030FEF77CFF1448903001F04CF91B
:105550006420FBF7E7FBFDF7AFF94FF47A70FBF738
:10556000E1FB0FB0BDE8F08F8000000001000000FB
:105570000C00000040000000780000004D5055393C
:1055800032353020626961730D0A000020782020D6
:1055900020792020207A20200D0A000030020020EF
:1055A00000007A442564202564202564206D670D61
:1055B0000A00000078000020256620256620256668
:1055C000206F2F730D0A00000249A1F10C0000F0BA
:1055D00057B800006C00002010B5002821D0114BF6
:1055E0000022001F196803E0814203D80A46496877
:1055F0000029F9D152B11368841A9C4204D1006881
:1056000018441060104602E0506000E0186039B1A4
:1056100002680B1A934203D10B681A44026049686E
:10562000416010BD1802002008B501226946002023
:10563000FBF7ECFA9DF800100548482903D000213B
:10564000C161084608BD0321C161084608BD0000CC
:105650000000002008B5012269467520FDF7DCF83E
:105660009DF800100548712903D00021C16108464A
:1056700008BD0121C161084608BD000000000020EE
:105680002DE9F04F064699488BB00024D0E900235D
:10569000CDE90623D0E902200994CDE904200D4686
:1056A000089493A001F0A0F84FF47A60FBF73AFB5E
:1056B00040F2DC5806AF0DF110090DF1200A08A8E0
:1056C00000F09CFE00204B464FEA0A0237F910C05A
:1056D00032F91010614501DD27F8101033F910C0C0
:1056E000614501DA23F81010401C0328EEDB0C2082
:1056F000FBF718FB641CA4B24445E0D3BDF9183095
:10570000BDF910208AA19048FEF79AFE8E4801F05C
:105710006BF8BDF91A30BDF912208CA18A48FEF74A
:105720008FFE894801F060F8BDF91C30BDF91420E6
:105730008CA18548FEF784FE834801F055F8BDF939
:105740001070BDF91840A7420BD0BDF91230BDF959
:105750001A20934205D0BDF91410BDF91C008142F6
:105760000ED1864C00224FF400512046FBF7CDFBB2
:10577000012291032046FBF7C8FB0BB0BDE8F08F78
:1057800004EB070C0CEBDC7C4FEA6C0C00EE10CA4F
:10579000DFF8ECB1DFF8B0C1B8EEC00ADBED010A0A
:1057A000ACF19C0C02EB030820EE200ADCED000AB1
:1057B00008EBD8784FEA680A20EE200A00EB0108CF
:1057C00008EBD87886ED000A00EE10AADBED010A9E
:1057D0009CED011AB8EEC00A4FEA6809E41BD21A20
:1057E00020EE200A401A04EBD47402EBD27220EEB1
:1057F000010A6410521086ED010A00EE109A00EBC7
:10580000D0704010B8EEC00AA1180144B0EE081ADA
:1058100020EE200ADCED020A20EE200A86ED020AC4
:1058200000EE101AF8EEC00A80EE810A00EE904AEF
:10583000F8EEE00A80EE201A00EE902AF8EEE00A78
:1058400085ED001A80EE201A00EE900A4DA0F8EEC9
:10585000E00A85ED011A80EE201A85ED021A00F0AB
:10586000C3FF4EA000F0C0FF0BF16008D8F808009D
:10587000FAF79BFE06460F46D8F80400FAF795FEA5
:1058800004460D46D8F80000FAF78FFE41EC100BE5
:105890008DE8F00053EC102B46A12B48FEF7D0FD0D
:1058A000294800F0A1FF47A000F09EFF08F10C0876
:1058B000D8F80800FAF779FE06460F46D8F8040033
:1058C000FAF773FE04460D46D8F80000FAF76DFEAD
:1058D00041EC100B8DE8F00053EC102B35A11A4869
:1058E000FEF7AEFD184800F07FFF46E7806800082D
:1058F0004D61672043616C6962726174696F6E3AD1
:1059000020576176652064657669636520696E203D
:1059100061206669677572652065696768742075BE
:105920006E74696C20646F6E65210D0A00000000C2
:105930006D61672078206D696E2F6D61783A202542
:10594000642F25640D0A0000C00200206D616720ED
:1059500079206D696E2F6D61783A2025642F25645A
:105960000D0A00006D6167207A206D696E2F6D61F0
:10597000783A2025642F25640D0A0000000C0240AF
:10598000000000204D61672043616C6962726174A0
:10599000696F6E20646F6E65210D0A00414B3839C6
:1059A0003633206D616762696173657320286D47C6
:1059B000290D0A0025662C2025662C2025660D0A57
:1059C00000000000414B38393633206D6167207389
:1059D00063616C6520286D47290D0A0090B0FBF7C4
:1059E00033FD00F01DFFFDF773F9FDF733F875483F
:1059F0007349002201607449C0E901124FF48045E7
:105A0000C0E9032542618261C2610262FBF788FA44
:105A1000FDF768F801226D4C570339462046FBF725
:105A200074FA4FF48059002249462046FBF76DFA7C
:105A300040F6B830FBF776F965A000F0D5FE4FF4DC
:105A40007A763046FBF76EF964A000F0CDFE304662
:105A5000FBF768F963A000F0C7FE3046FBF762F978
:105A600062A000F0C1FE3046FBF75CF961A000F0D7
:105A7000BBFEFCF797FF76103046FBF753F9DFF8D3
:105A80008481DFF884A1D8F81C00002832D05FA000
:105A900000F0AAFEB000FBF745F901215046FBF7E4
:105AA0002FFA01280FD162A000F09EFEFFF7A2FBA3
:105AB0003046FBF737F966A000F096FEFFF784FD4D
:105AC0003046FBF72FF9002239462046FBF71DFA36
:105AD000012249462046FBF718FA62A000F084FE36
